{
  "address": "0xaBd4Cd516eDd0E7D3347479Da9be5c60ba5D8dcf",
  "abi": [
    {
      "inputs": [
        {
          "internalType": "address",
          "name": "_SB",
          "type": "address"
        },
        {
          "internalType": "address",
          "name": "_SB_MASTER_CHEF",
          "type": "address"
        }
      ],
      "stateMutability": "nonpayable",
      "type": "constructor"
    },
    {
      "anonymous": false,
      "inputs": [
        {
          "indexed": true,
          "internalType": "address",
          "name": "previousOwner",
          "type": "address"
        },
        {
          "indexed": true,
          "internalType": "address",
          "name": "newOwner",
          "type": "address"
        }
      ],
      "name": "OwnershipTransferred",
      "type": "event"
    },
    {
      "inputs": [],
      "name": "SB",
      "outputs": [
        {
          "internalType": "address",
          "name": "",
          "type": "address"
        }
      ],
      "stateMutability": "view",
      "type": "function"
    },
    {
      "inputs": [],
      "name": "SB_MASTER_CHEF",
      "outputs": [
        {
          "internalType": "address",
          "name": "",
          "type": "address"
        }
      ],
      "stateMutability": "view",
      "type": "function"
    },
    {
      "inputs": [
        {
          "internalType": "address",
          "name": "to",
          "type": "address"
        },
        {
          "internalType": "uint256",
          "name": "amount",
          "type": "uint256"
        }
      ],
      "name": "onSBReward",
      "outputs": [
        {
          "internalType": "uint256",
          "name": "",
          "type": "uint256"
        }
      ],
      "stateMutability": "nonpayable",
      "type": "function"
    },
    {
      "inputs": [],
      "name": "owner",
      "outputs": [
        {
          "internalType": "address",
          "name": "",
          "type": "address"
        }
      ],
      "stateMutability": "view",
      "type": "function"
    },
    {
      "inputs": [],
      "name": "renounceOwnership",
      "outputs": [],
      "stateMutability": "nonpayable",
      "type": "function"
    },
    {
      "inputs": [
        {
          "internalType": "address",
          "name": "newOwner",
          "type": "address"
        }
      ],
      "name": "transferOwnership",
      "outputs": [],
      "stateMutability": "nonpayable",
      "type": "function"
    },
    {
      "inputs": [
        {
          "internalType": "address",
          "name": "_token",
          "type": "address"
        },
        {
          "internalType": "address",
          "name": "_to",
          "type": "address"
        },
        {
          "internalType": "uint256",
          "name": "_amount",
          "type": "uint256"
        }
      ],
      "name": "withdrawAsset",
      "outputs": [],
      "stateMutability": "nonpayable",
      "type": "function"
    }
  ],
  "transactionHash": "0x82d39514526e6b5fa9e8ff0aa539b897f9723cd679b7685c9c50596c97ae9355",
  "args": [
    "0xaba66801a23458f6ff888c03e0453b747c1fa61b",
    "0x66bCC0017D98787e46333F11cE6CD92D276133Eb"
  ],
  "solcInputHash": "07200968edc47619ed717cdf29285180",
  "bytecode": "0x60c060405234801561001057600080fd5b5060405161080938038061080983398101604081905261002f916100aa565b600080546001600160a01b031916339081178255604051909182917f8be0079c531659141344cd1fd0a4f28419497f9722a3daafe3b4186f6b6457e0908290a3506001600160601b0319606092831b8116608052911b1660a0526100dc565b80516001600160a01b03811681146100a557600080fd5b919050565b600080604083850312156100bc578182fd5b6100c58361008e565b91506100d36020840161008e565b90509250929050565b60805160601c60a05160601c6106ef61011a60003960008181609c015261021301526000818160f9015281816102aa015261033f01526106ef6000f3fe608060405234801561001057600080fd5b506004361061007d5760003560e01c80638da5cb5b1161005b5780638da5cb5b146100e3578063967bb775146100f45780639bd4f1a91461011b578063f2fde38b1461013c57600080fd5b8063092ae4dc146100825780633378cb3314610097578063715018a6146100db575b600080fd5b6100956100903660046105af565b61014f565b005b6100be7f000000000000000000000000000000000000000000000000000000000000000081565b6040516001600160a01b0390911681526020015b60405180910390f35b610095610192565b6000546001600160a01b03166100be565b6100be7f000000000000000000000000000000000000000000000000000000000000000081565b61012e6101293660046105ea565b610206565b6040519081526020016100d2565b61009561014a36600461058e565b61036d565b6000546001600160a01b031633146101825760405162461bcd60e51b815260040161017990610684565b60405180910390fd5b61018d838383610457565b505050565b6000546001600160a01b031633146101bc5760405162461bcd60e51b815260040161017990610684565b600080546040516001600160a01b03909116907f8be0079c531659141344cd1fd0a4f28419497f9722a3daafe3b4186f6b6457e0908390a3600080546001600160a01b0319169055565b6000336001600160a01b037f000000000000000000000000000000000000000000000000000000000000000016146102925760405162461bcd60e51b815260206004820152602960248201527f4f6e6c792053424d6173746572436865662063616e2063616c6c207468697320604482015268333ab731ba34b7b71760b91b6064820152608401610179565b6040516370a0823160e01b81523060048201526000907f00000000000000000000000000000000000000000000000000000000000000006001600160a01b0316906370a082319060240160206040518083038186803b1580156102f457600080fd5b505afa158015610308573d6000803e3d6000fd5b505050506040513d601f19601f8201168201806040525081019061032c9190610633565b90508083111561033a578092505b6103657f00000000000000000000000000000000000000000000000000000000000000008585610457565b509092915050565b6000546001600160a01b031633146103975760405162461bcd60e51b815260040161017990610684565b6001600160a01b0381166103fc5760405162461bcd60e51b815260206004820152602660248201527f4f776e61626c653a206e6577206f776e657220697320746865207a65726f206160448201526564647265737360d01b6064820152608401610179565b600080546040516001600160a01b03808516939216917f8be0079c531659141344cd1fd0a4f28419497f9722a3daafe3b4186f6b6457e091a3600080546001600160a01b0319166001600160a01b0392909216919091179055565b604080516001600160a01b038481166024830152604480830185905283518084039091018152606490920183526020820180516001600160e01b031663a9059cbb60e01b17905291516000928392908716916104b3919061064b565b6000604051808303816000865af19150503d80600081146104f0576040519150601f19603f3d011682016040523d82523d6000602084013e6104f5565b606091505b509150915081801561051f57508051158061051f57508080602001905181019061051f9190610613565b61056b5760405162461bcd60e51b815260206004820152601f60248201527f5472616e7366657248656c7065723a205452414e534645525f4641494c4544006044820152606401610179565b5050505050565b80356001600160a01b038116811461058957600080fd5b919050565b60006020828403121561059f578081fd5b6105a882610572565b9392505050565b6000806000606084860312156105c3578182fd5b6105cc84610572565b92506105da60208501610572565b9150604084013590509250925092565b600080604083850312156105fc578182fd5b61060583610572565b946020939093013593505050565b600060208284031215610624578081fd5b815180151581146105a8578182fd5b600060208284031215610644578081fd5b5051919050565b60008251815b8181101561066b5760208186018101518583015201610651565b818111156106795782828501525b509190910192915050565b6020808252818101527f4f776e61626c653a2063616c6c6572206973206e6f7420746865206f776e657260408201526060019056fea26469706673582212201d09d4bf7c9b069236bff65b962afcfed209a68617424227c3d694557977f5c664736f6c63430008040033",
  "devdoc": {
    "kind": "dev",
    "methods": {
      "owner()": {
        "details": "Returns the address of the current owner."
      },
      "renounceOwnership()": {
        "details": "Leaves the contract without owner. It will not be possible to call `onlyOwner` functions anymore. Can only be called by the current owner. NOTE: Renouncing ownership will leave the contract without an owner, thereby removing any functionality that is only available to the owner."
      },
      "transferOwnership(address)": {
        "details": "Transfers ownership of the contract to a new account (`newOwner`). Can only be called by the current owner."
      }
    },
    "version": 1
  },
  "userdoc": {
    "kind": "user",
    "methods": {},
    "version": 1
  },
  "storageLayout": {
    "storage": [
      {
        "astId": 7,
        "contract": "contracts/Rewarder.sol:Rewarder",
        "label": "_owner",
        "offset": 0,
        "slot": "0",
        "type": "t_address"
      }
    ],
    "types": {
      "t_address": {
        "encoding": "inplace",
        "label": "address",
        "numberOfBytes": "20"
      }
    }
  }
}